:100000000C9410010C9438010C9438010C943801B4
:100010000C9438010C9438010C9438010C9438017C
:100020000C94FC040C9438010C9438010C943801A5
:100030000C9438010C9438010C9438010C9438015C
:100040000C945A040C9438010C94CA040C94A40423
:100050000C9438010C9438010C9438010C9438013C
:100060000C9438010C9438014F4E4B594F005041BD
:100070004E41534F4E4943004E45433432004E45A6
:1000800043313600495236300052433641004A5619
:1000900043005349454D454E53004E4F4B49410097
:1000A0004752554E444947004150504C450053413A
:1000B0004D53473332005243360044454E4F4E00B5
:1000C000524335004B415345494B594F004D415424
:1000D000535553480053414D53554E47004E4543E9
:1000E00000534952435300554E4B4E4F574E001745
:1000F00003060306000000000009091116000003B2
:100100000F060A060A000000000000010B110001A2
:100110000309050C050900000000050D0D1515006B
:100120000003080307171E0307090D0005050F0F3D
:10013000010000070B100B10000000000107070D65
:100140000D00000105030A0F18030A040900101C22
:1001500028300101000407131738071307130C1880
:10016000000C1801010003050C0F1E050C040B0008
:100170001015252501010002050C1122050C050CA6
:1001800000000000000101001C050C1122050C05F7
:100190000C000D1A222A01010002050C1122050C87
:1001A000050C0010102020010100010F15070B079E
:1001B0000B070B0F14000F14000100207C20307877
:1001C00000E700E100DD00D500CD00C400C000BAAA
:1001D00000B600AE00A800A0009A0092008E008930
:1001E0000084007E0078006E0068000001020304B5
:1001F000050708090A0B0F10111415181B1C3038BD
:1002000020434D443A2030780020414444523A2063
:100210003078005F3E2050524F544F3A20007C0D02
:1002200011241FBECFEFD8E0DEBFCDBF22E0A2E297
:10023000B1E001C01D92AA30B207E1F711E0A0E0E1
:10024000B1E0EAE1F0E202C005900D92A232B107FE
:10025000D9F711E0C0E1D1E004C02197FE010E946E
:10026000130ECF30D107C9F70E94040B0C940B106A
:100270000C940000AF92BF92CF92DF92EF92FF9268
:100280000F931F93CF93DF936C017B018B01040FBE
:10029000151FEB015E01AE18BF08C017D10759F05A
:1002A0006991D601ED91FC910190F081E02DC6019C
:1002B0000995892B79F7C501DF91CF911F910F9196
:1002C000FF90EF90DF90CF90BF90AF900895FC012A
:1002D000538D448D252F30E0842F90E0821B930BAB
:1002E000541710F0CF96089501970895FC01918D51
:1002F000828D981761F0A28DAE0FBF2FB11D5D9654
:100300008C91928D9F5F9F73928F90E008958FEFF5
:100310009FEF0895FC01918D828D981731F0828DA9
:10032000E80FF11D858D90E008958FEF9FEF089500
:10033000FC01918D228D892F90E0805C9F4F821B64
:1003400091098F739927089589E691E00E94980199
:1003500021E0892B09F420E0822F089580E090E0CD
:10036000892B29F00E94A40181110C9400000895AA
:10037000FC01A48DA80FB92FB11DA35ABF4F2C911A
:10038000848D90E001968F739927848FA689B78911
:100390002C93A089B1898C91837080648C93938D08
:1003A000848D981306C00288F389E02D80818F7DAB
:1003B00080830895EF92FF920F931F93CF93DF9363
:1003C000EC0181E0888F9B8D8C8D98131AC0E88991
:1003D000F989808185FF15C09FB7F894EE89FF8960
:1003E0006083E889F98980818370806480839FBFFE
:1003F00081E090E0DF91CF911F910F91FF90EF90FE
:100400000895F62E0B8D10E00F5F1F4F0F7311270D
:10041000E02E8C8D8E110CC00FB607FCFACFE88948
:10042000F989808185FFF5CFCE010E94B801F1CF17
:10043000EB8DEC0FFD2FF11DE35AFF4FF0829FB7BC
:10044000F8940B8FEA89FB8980818062CFCF0F936C
:100450001F93CF93DF938C01D0E0C0E0F801EC0F45
:10046000FD1F6491662341F089E691E00E94DA0164
:10047000892B11F02196F2CFCE01DF91CF911F9100
:100480000F910895CF93DF93EC01888D8823B9F005
:10049000AA89BB89E889F9898C9185FD03C080818F
:1004A00086FD0DC00FB607FCF7CF8C9185FFF2CF0C
:1004B000808185FFEDCFCE010E94B801E9CFDF91A9
:1004C000CF9108959091450160912C01911108C040
:1004D0006F3031F480932B019F5F90934501089515
:1004E000709135019717E8F1209136019217C8F500
:1004F00020914B0130914C01482F50E0E0913B019D
:10050000EE2361F1A92FA71BBB0B02C0440F551F9F
:10051000AA95E2F7242B352B30934C0120934B0105
:100520006C3109F042C023EF290F2D30A8F6282F97
:1005300030E0692F6D50770BD90102C0AA0FBB1FA5
:100540006A95E2F7AD0120914601309147012A2BCF
:10055000352B3093470120934601BECF220F331F26
:10056000D9CF709137019717D8F22091380192179F
:10057000B8F6482F50E020914D0130914E01E091A6
:100580003B01EE2379F0A92FA71BBB0B02C0440F40
:10059000551FAA95E2F7242B352B30934E0120935B
:1005A0004D01BECF220F331FF6CF6330E1F42FEEA3
:1005B000290F243008F090CF282F30E0692F6151A7
:1005C000770BD90102C0AA0FBB1F6A95E2F7AD01F4
:1005D00020914801309149012A2B352B3093490154
:1005E0002093480179CF653009F076CF2CEE290FA2
:1005F000243048F5282F30E0692F6850770B02C06F
:10060000220F331F6A95E2F740914D0150914E0140
:10061000242B352B30934E0120934D01E92FE69585
:10062000E695E695F0E0EC5DFE4F4081592F57705E
:1006300021E030E001C0220F5A95EAF78823C9F083
:10064000242B208349CF28EE290F243070F4282F43
:10065000A92FA451BB0B01C0220FAA95EAF7309134
:100660004A01232B20934A01D9CF903308F034CF8D
:10067000D5CF20952423E5CFFC018081918100977F
:1006800011F00C94B50E08950F931F93CF93DF9341
:10069000EC0188819981009759F02A813B812617C6
:1006A000370730F081E0DF91CF911F910F910895CE
:1006B0008B016F5F7F4F0E943E0F009759F0998327
:1006C00088831B830A832C813D81232B59F7FC01EE
:1006D0001082E8CF80E0E7CFEF92FF920F931F9355
:1006E000CF93DF93EC017B018A01BA010E9444039E
:1006F00028813981811114C02115310519F0C901F2
:100700000E94B50E198218821D821C821B821A82D9
:10071000CE01DF91CF911F910F91FF90EF9008953F
:100720001D830C83B701C9010E940410F1CFEF9221
:10073000FF920F931F93CF93DF93CDB7DEB76197EF
:100740000FB6F894DEBF0FBECDBF8C01CB01F80110
:1007500011821082138212821582148240E19E015E
:100760002F5F3F4F7901B9010E94B20DF70101904F
:100770000020E9F73197AF014E195F09B701C801B1
:100780000E946C0361960FB6F894DEBF0FBECDBF1A
:10079000DF91CF911F910F91FF90EF900895CF922D
:1007A000DF92EF92FF920F931F93CF93DF93CDB71A
:1007B000DEB72E970FB6F894DEBF0FBECDBF8C010B
:1007C0006031710508F073C0CE0107960E9497034F
:1007D0001A8219821C821B821E821D8280E38D87F1
:1007E0001E86BE01635F7F4FFB0101900020E9F789
:1007F0003197AF01461B570BCE0101960E946C0347
:10080000CF80D884C114D10409F444C0EB84FC84A3
:10081000E114F104B1F08D819E81E80EF91EB7015B
:10082000CE0101960E9444038823A1F129813A81D7
:100830008D819E81B601820F931F0E940410FE825B
:10084000ED82F801118210821382128215821482C5
:1008500069817A816115710529F04D815E81C80138
:100860000E946C03CE0101960E943C03CE010796C4
:100870000E943C03C8012E960FB6F894DEBF0FBE4F
:10088000CDBFDF91CF911F910F91FF90EF90DF903F
:10089000CF90089589819A81009711F00E94B50E3A
:1008A0001A8219821E821D821C821B82CACF0E945C
:1008B0009703E0CF1F920F920FB60F9211242F9340
:1008C0003F938F939F93AF93BF93809165019091D6
:1008D0006601A0916701B09168013091640123E045
:1008E000230F2D3758F50196A11DB11D20936401EA
:1008F0008093650190936601A0936701B0936801AE
:100900008091600190916101A0916201B0916301B9
:100910000196A11DB11D8093600190936101A09388
:100920006201B0936301BF91AF919F918F913F910D
:100930002F910F900FBE0F901F90189526E8230F50
:100940000296A11DB11DD2CF1F920F920FB60F922A
:1009500011242F933F934F935F936F937F938F93C4
:100960009F93AF93BF93EF93FF9389E691E00E942B
:10097000B801FF91EF91BF91AF919F918F917F91BE
:100980006F915F914F913F912F910F900FBE0F90FC
:100990001F9018951F920F920FB60F9211242F934C
:1009A0008F939F93EF93FF93E0917901F0917A01F8
:1009B0008081E0917F01F091800182FD1BC09081D8
:1009C000809182018F5F8F7320918301821741F0A4
:1009D000E0918201F0E0E759FE4F958F809382010C
:1009E000FF91EF919F918F912F910F900FBE0F90DC
:1009F0001F9018958081F4CF1F920F920FB60F921F
:100A000011242F933F934F935F936F937F938F9313
:100A10009F93AF93BF93CF93DF93EF93FF9389B1EE
:100A200084709091590191110BC0909152019111D4
:100A30006EC090915101811118C09F5F9093510138
:100A400080915901FF91EF91DF91CF91BF91AF91CB
:100A50009F918F917F916F915F914F913F912F91D6
:100A60000F900FBE0F901F901895992309F181E008
:100A7000809352018093500110924F0110924E01C9
:100A800010924D0110924C0110924B0110924A01AC
:100A900010924901109248011092470110924601AC
:100AA0009FEF909345018093440110924301C8CF7A
:100AB00080914101909142018F3F980709F2019680
:100AC000909342018093410180910401909105012E
:100AD0008F3F980709F4B4CF019690930501809356
:100AE0000401883E924008F4ABCF80913F01909181
:100AF0004001892B09F4A4CF1092400110923F01CC
:100B00008FEF9FEF909305018093040199CF90910F
:100B10005001992309F4B0C1882389F080914401E0
:100B20008F5F809344018A3E08F422C1809158016E
:100B300010925201109251011092440119C1109269
:100B400045018091510191EE980F9B3040F49091B6
:100B5000440196506AEA71E0953008F476C09091AD
:100B60005801943149F490EB980F9F3628F49091F6
:100B700044019A539C36B8F022EA280F2435B0F489
:100B80009091440132ED390F68E871E03C3208F48D
:100B90005CC09751973150F48091580167E771E03C
:100BA000843109F052C069E971E04FC09091580159
:100BB000943139F4243528F49091440195509830BB
:100BC00090F394EC980F903138F4909144019C5339
:100BD00066E671E09031C8F197ED980F983138F4DE
:100BE00090914401995265E571E0983170F198ED6A
:100BF000980F983138F490914401945164E471E075
:100C00009D3018F195EF980F963028F09AEE980FD6
:100C10009B3008F04AC09091440125EF290F2630FF
:100C200028F02AEE290F2B3008F03FC090933E01A8
:100C30008151803118F09151903198F510923D0119
:100C400080E48093430163E371E080915201882343
:100C500031F041E150E08CE291E00E94A90D8091D9
:100C60003C0190912C0180FFFBC0973109F479C0C1
:100C7000993009F476C020912E01909144012917F2
:100C800008F068C030E0220F331F9217130611F0EE
:100C90000CF060C08695817091E089270E94620205
:100CA00060C081E080933D01CECF9DEF980F9530DD
:100CB00058F49091440129EE290F283008F447C0D8
:100CC0009950953008F443C09DED980F9B3068F41F
:100CD000909144019B50963040F410923E0181E087
:100CE00080933D0161E171E0B0CF9AEF980F9530AC
:100CF00070F4909144012FED290F213140F490932D
:100D00003E0181E080933D0160E071E09ECF9CEF69
:100D1000980F933018F08850853090F480914401FA
:100D200099EF980F943020F092EF980F973040F49D
:100D300080933E0181E080933D016FEE70E085CFAE
:100D40001092520110922C0170E060E07ECF62E2BE
:100D500071E07BCF90913D0186958170992309F4D4
:100D60009DCF81E080935101109244011092500177
:100D700080915201882309F463CE4091390150914A
:100D8000450145135DCE80913A01811159CE6091A4
:100D900000017091010120914D0130914E016217C7
:100DA000730709F0E2C28091410190914201803BBA
:100DB000944008F0DAC280912A018F5F80932A0163
:100DC00080912C01813009F0D3C290912A01915079
:100DD000923008F0CDC210924201109241018091F0
:100DE0005901882351F120914D0130914E014091DC
:100DF0004B0150914C016217730799F480910201E5
:100E0000909103018417950761F4809141019091BD
:100E100042018A3C984028F480915301816080937C
:100E20005301509303014093020130930101209339
:100E30000001109242011092410110925201109251
:100E40004E0110924D011092510110924401809177
:100E50005801843109F0F4CD87E880935101F0CD39
:100E6000983009F07ECF809144018751883010F48A
:100E700081E014CF80E012CF90914F01992309F4C3
:100E800068C2882309F470C3909144019F5F9093D6
:100E90004401209139018091450128133EC33091CE
:100EA0003A01313009F039C330913C0130FD33C390
:100EB0009F3208F432C3809151019091310189171A
:100EC00008F436CE90913201981708F431CE109282
:100ED0003A014ECF4F3009F060C030913A013111E4
:100EE0009EC0963218F12BEF280F2230F8F481E0E3
:100EF00080933A0188E180932C0187E08093390147
:100F0000109235011092360110923701809338010A
:100F100080914D0190914E01880F991F20912B01D6
:100F2000822B90934E0180934D011EC3209130017E
:100F300030E0220F331F9217130654F0883008F464
:100F400017CF8AE08093390181E080933A010CC386
:100F50008A3008F40DCF80E180932C0189E08093E2
:100F6000350191E19093360191E0909337018093A0
:100F7000380180914D0190914E019C0122273370E0
:100F8000232B09F4F5CE90934B0110924C01992735
:100F900090934E0180934D01EBCE473109F03FC055
:100FA00030913A0131113BC02091300130E0220FE5
:100FB000331F921713062CF08F3008F4D9CE81E13D
:100FC000C1CF813108F4D4CE81E180932C011092FD
:100FD00035018BE0809336018093370186E1809361
:100FE000380180914D0190914E0120914B0130913B
:100FF0004C01220F331F220F331FAC01C6E0569560
:101000004795CA95E1F7242B352B30934C0120935B
:101010004B018F73992720913D01822BB9CF3091DD
:101020003C0130FF13C06091300170E0660F771F04
:10103000961717065CF0E22FE250FF0B8E171F0683
:101040002CF030913A01332309F47ECF9A3E08F414
:101050008FCE2150330B8217130641F490913A0141
:10106000911104C08F5F8093450182CE423009F414
:101070009FC24C3109F05CCD882309F49BC28032B9
:1010800009F051C091E090933A0192E090932C01C5
:10109000809339012091460130914701A901542FD5
:1010A00044275295550F507E80914B0190914C01F1
:1010B000842B952B90934C0180934B0140914D01D3
:1010C00080E0942F990F990FE3E036952795EA95E4
:1010D000E1F7822B932B5CCF1092590149CE90EF10
:1010E000980F923008F024CD21E020933A0194E14A
:1010F00090932C018093390180914B0190914C0188
:10110000AC01F4E056954795FA95E1F750934E01FE
:1011100040934D018F70992790934C0180934B0120
:101120002093520125CE90EF980F923008F000CD19
:1011300091E090933A0194E190932C0180933901CE
:1011400020914B0130914C014091460180E0942F59
:10115000990FA90164E0569547956A95E1F7842BAC
:10116000952B90934E0180934D012F703327309330
:101170004C0120934B01FCCD80E00E946202109252
:101180003D018091440180933E0110924F0182C045
:10119000D1E0869581708D270E94620280912C019A
:1011A0008930B9F480914501843099F4CC3088F0CD
:1011B000C091440181E00E9462028091300190E080
:1011C000880F991FC817190609F0CCF6D0933D0176
:1011D000D8CF80913C01869581700E9462028091F7
:1011E0003C0186958170E1C180912D01C817A0F165
:1011F0002091300190913E0180913D01291768F4C2
:1012000030E0220F331F9217130609F034F491E0F7
:10121000811190E0892F90933D0190912C0199309C
:10122000C1F4909145019130A1F4813091F494E2A0
:101230009093390125E02093350124E12093360174
:1012400025E1209337019093380110924C011092C0
:101250004B010E94620295CF1092520110924401FC
:1012600090CF80912C01833081F590914501903190
:1012700009F045C0809151018550883008F5809172
:10128000440124EC280F203148F410924F0181E1F1
:101290008093450181E0809351016ACD2AE020933B
:1012A0002C019093370190E290933801909339018B
:1012B0008F50803108F04BC081E00E94620265CF00
:1012C0001092520110924401E5CF8C31C1F480910B
:1012D00045018830A1F4909144019E529C3278F4EB
:1012E0009BE190932C0110923501809336018093FD
:1012F000370180E1809338018093390146CF809196
:10130000510190912D01891770F090912E0198173D
:1013100050F09091440120912F01921720F02091DC
:101320003001291748F690913101891748F29091C0
:101330003201981728F28091440190913301891766
:1013400008F4BECF90913401981708F4B9CF80E02B
:10135000B4CF811104C0809151018F5F9CCF81E097
:1013600080934F018093440103CD10922A0128CD30
:1013700091E0909359018830A1F5A90140955095CD
:101380005370E0913F01F09140014E175F07B9F4AF
:1013900050934E0140934D011092400110923F0135
:1013A0008093580180914B0190914C01909355018D
:1013B00080935401509357014093560110CD20FD66
:1013C0000BC03093400120933F0110920501109211
:1013D00004011092590103CD1092400110923F0177
:1013E000F8CF8F3031F42F3F314099F3809358017B
:1013F00065C0803159F440914B0150914C014F3FF1
:101400005105A1F72E3F310589F7E3CF823011F561
:101410005111ECCF209141013091420128303740E9
:10142000B0F4209102013091030130934C012093DC
:101430004B0170934E0160934D0190915301916067
:10144000909353011092420110924101CFCF10921C
:101450005901CCCF853049F54091240130912501C7
:1014600020912601942F9F7042954F709427432F0F
:101470004F70942732953F709327322F3F7093130C
:10148000109259019091270129279091280129272D
:1014900090912901291310925901909153012091A3
:1014A0004A01922B90935301A1CF893009F09ECF2E
:1014B000443209F09BCF95E19093580120914B0164
:1014C00030914C0130935501209354018230A9F49E
:1014D000309303012093020180914D0190914E01C0
:1014E0009093570180935601809148019091490152
:1014F000909323018093220172CC873069F7209169
:10150000430180914D0190914E01822B90934E01A9
:1015100080934D01E1CF9111DACC40912C01413003
:1015200009F0D8CC9C3008F47ACD8B3008F477CD14
:1015300091E0980F90933901E82FEB50FF0B5E2F4D
:10154000442720914B0130914C01242B352B3093B3
:101550004C0120934B0190913701890F8F5F80934D
:1015600038018AE08093440180913C0180FF79CE6C
:10157000C091510190912E019C1708F035CE9091A9
:101580002C01993009F004CE90914501943009F076
:10159000FFCDCC3008F4FCCD80913901843209F0C4
:1015A000EBCD81E00E94620281E080933D01E9CDB4
:1015B000811195CD809141019091420188309740F1
:1015C00008F08ACD81E080933A0182E080932C017B
:1015D00010923901809102019091030190934C0186
:1015E00080934B01809100019091010190934E01F5
:1015F00080934D018091530181608093530110923B
:10160000420110924101B4CBCF93DF93CDB7DEB747
:10161000A1970FB6F894DEBF0FBECDBF789484B506
:10162000826084BD84B5816084BD85B5826085BDDE
:1016300085B5816085BD80916E00816080936E006C
:10164000109281008091810082608093810080915E
:10165000810081608093810080918000816080930F
:1016600080008091B10084608093B1008091B000CF
:1016700081608093B00080917A00846080937A00CA
:1016800080917A00826080937A0080917A008160F4
:1016900080937A0080917A00806880937A0010921B
:1016A000C100E0917901F0917A0182E08083E091BC
:1016B0007501F09176011082E0917701F091780147
:1016C0009FEC908310928101E0917D01F0917E0169
:1016D00096E09083E0917B01F0917C019081906194
:1016E0009083E0917B01F0917C01908198609083E0
:1016F000E0917B01F0917C01908190689083E09172
:101700007B01F0917C0190819F7D90835298809322
:10171000B0008093B10084E88093B3008093B4005C
:101720001092B20087E087BB84E080937000FF24B2
:10173000F39400E010E078E3E72EEBE0DE2EF0E338
:10174000CF2E80915901882309F48AC080915801D5
:10175000873009F486C108F0C1C0823009F441C164
:1017600008F08AC0813009F4FBC080915801809351
:101770005A01809154019091550190935C0180939E
:101780005B01809156019091570190935E01809387
:101790005D018091530180935F0181E010925701B8
:1017A000109256011092550110925401109253015B
:1017B00010925901882309F453C080915F0180FD84
:1017C0004FC083E192E00E942702B0905A0190E05E
:1017D00080E0FC01E551FE4FE491BE1255C1FC01D1
:1017E000EE0FFF1FEF53FE4F859194910E94270249
:1017F00089E092E00E94270260915B0170915C0198
:10180000CE0101960E94CF034D815E8169817A816C
:1018100089E691E00E943A01CE0101960E943C03C4
:1018200080E092E00E94270260915D0170915E016C
:10183000CE0101960E94CF034D815E8169817A813C
:1018400089E691E00E943A01CE0101960E943C0394
:1018500042E050E06EE171E089E691E00E943A01D9
:101860000115110509F46DCF0E94A401882309F424
:1018700068CF0E94000065CF833009F45DC08530D9
:1018800009F073CF809154019091550182309042BC
:1018900009F06BCFC0925801809156019091570189
:1018A00054E0969587955A95E1F790935701809368
:1018B00056018091560190915701892F99278F7079
:1018C0009927909355018093540120915301809161
:1018D000540190915501207F822BA6C0873121F0C1
:1018E000D0F4813109F041CF209156013091570158
:1018F0008091560190915701269521702F25809552
:1019000090958170281741F180915601909157016F
:101910009695879561C0883109F4ADC0823309F08E
:1019200024CF80915601909157012091560130911A
:101930005701892F99270CC080915601909157012A
:101940002091560130915701892F99272095309584
:101950002817190609F46CC01092580180E01ECFB8
:1019600080915401909155019695982F88279795CD
:1019700087959093550180935401809156019091E1
:1019800057012091540130915501892F9927822BBD
:10199000932B909355018093540180915401909121
:1019A0005501880F991F90935501809354018091A0
:1019B00056019091570187FF09C080915401909181
:1019C00055010196909355018093540180915601E1
:1019D000909157018F7799279093570180935601E3
:1019E000C4CE8091560190915701209156013091BB
:1019F0005701892F99272095309528171906F1F45A
:101A000080915401909155012091540130915501DC
:101A1000892F9927209530952817190649F4809128
:101A20005401909155019927909355018093540149
:101A300080915601909157019927CECF8091540102
:101A4000909155018E3E974849F4D092580180916B
:101A5000560190915701892F9927E6CFE0925801BE
:101A600084CE80915401909155018F7D90935501C2
:101A7000809354017ACE80915601909157018D3711
:101A8000910509F072CE68CF01968531910509F074
:101A9000A0CE8BEB91E00E9427028B2D90E0B0E06E
:101AA000A0E019A2FE01B196AC01BD014F7055270F
:101AB0006627772724E0B695A795979587952A9569
:101AC000D1F74A30BCF4405D42930097A105B105BF
:101AD00059F7309709F48CCEDF010D900020E9F71B
:101AE0001197AD014E1B5F0BBF0189E691E00E948B
:101AF0003A017ECE495CE8CFE9E6F1E0138212823A
:101B000088EE93E0A0E0B0E084839583A683B7835A
:101B100080E191E09183808385EC90E095878487D4
:101B200084EC90E09787868780EC90E0918B808BA7
:101B300081EC90E0938B828B82EC90E0958B848B90
:101B400086EC90E0978B868B118E128E138E148EFE
:101B50000895FB01DC0102C005900D9241505040F8
:101B6000D8F70895BB27FB015527AA27880F991F8F
:101B7000AA1FA41710F0A41B83955051B9F7A05DBC
:101B8000AA3308F0A95DA193009779F7B111B19339
:101B90001192CB010C94CC0DDC01FC01672F7191EB
:101BA0007723E1F7329704C07C916D937083629143
:101BB000AE17BF07C8F308952F923F924F925F92DE
:101BC0006F927F928F929F92AF92BF92CF92DF924D
:101BD000EF92FF920F931F93CF93DF93CDB7DEB7B2
:101BE000CA1BDB0B0FB6F894DEBF0FBECDBF099446
:101BF0002A88398848885F846E847D848C849B849D
:101C0000AA84B984C884DF80EE80FD800C811B81AA
:101C1000AA81B981CE0FD11D0FB6F894DEBF0FBED9
:101C2000CDBFED010895EE0FFF1F0590F491E02D5B
:101C300009940F931F93CF93DF938230910510F493
:101C400082E090E0E0910802F091090230E020E0AB
:101C5000B0E0A0E0309799F42115310509F44AC0AD
:101C6000281B390B24303105D8F58A819B816115F9
:101C7000710589F1FB0193838283FE0111C04081CC
:101C800051810281138148175907E0F0481759071D
:101C900099F4109761F012960C93129713961C9377
:101CA0003296CF01DF91CF911F910F91089500934C
:101CB000080210930902F4CF2115310551F04217A3
:101CC000530738F0A901DB019A01BD01DF01F801DA
:101CD000C1CFEF01F9CF9093090280930802CDCFD5
:101CE000FE01E20FF31F8193919322503109398352
:101CF0002883D7CF2091060230910702232B41F48D
:101D000020910801309109013093070220930602C7
:101D100020910601309107012115310541F42DB7BD
:101D20003EB740910A0150910B01241B350BE09105
:101D30000602F0910702E217F307A0F42E1B3F0BF7
:101D40002817390778F0AC014E5F5F4F241735072D
:101D500048F04E0F5F1F5093070240930602819395
:101D600091939FCFF0E0E0E09CCFCF93DF9300977B
:101D7000E9F0FC01329713821282A0910802B0911F
:101D80000902ED0130E020E01097A1F420813181BB
:101D9000820F931F209106023091070228173907FE
:101DA00009F061C0F0930702E0930602DF91CF9142
:101DB0000895EA01CE17DF07E8F54A815B819E01AD
:101DC00041155105B1F7E901FB83EA834991599126
:101DD000C40FD51FEC17FD0761F480819181029635
:101DE000840F951FE90199838883828193819B8366
:101DF0008A83F0E0E0E012968D919C911397009712
:101E0000B9F52D913C911197CD010296820F931F48
:101E100020910602309107022817390739F63097CA
:101E200051F51092090210920802B0930702A09394
:101E30000602BCCFD383C28340815181840F951F9A
:101E4000C817D90761F44E5F5F4F88819981480FA9
:101E5000591F518340838A819B81938382832115FB
:101E6000310509F0B0CFF0930902E09308029ECF4C
:101E7000FD01DC01C0CF13821282D7CFB0E0A0E019
:101E8000E4E4FFE00C94DE0D8C01009751F4CB01EB
:101E90000E94190E8C01C801CDB7DEB7E0E10C94A9
:101EA000FA0DFC01E60FF71F9C0122503109E217E1
:101EB000F30708F49DC0D901CD91DC911197C617A5
:101EC000D70798F0C530D10530F3CE0104978617B7
:101ED000970708F3C61BD70B2297C193D1936D9335
:101EE0007C93CF010E94B50ED6CF5B01AC1ABD0A20
:101EF0004C018C0E9D1EA0910802B0910902512C3C
:101F0000412CF12CE12C109731F580910602909133
:101F100007028815990509F05CC04616570608F0B7
:101F200058C08091060190910701009741F48DB748
:101F30009EB740910A0150910B01841B950BE81745
:101F4000F90708F055C0F0930702E0930602F90183
:101F500071836083A0CF8D919C91119712966C90A4
:101F6000129713967C901397A815B90559F56C0133
:101F700042E0C40ED11CCA14DB0420F1AC014A19A2
:101F80005B09DA011296159780F0628273825183A1
:101F90004083D9016D937C93E114F10471F0D70172
:101FA0001396FC93EE93129776CF22968C0F9D1F7B
:101FB000F90191838083F301EFCFF0930902E0935D
:101FC000080269CF4816590608F42C017D01D30197
:101FD0009ACFCB010E94190E7C01009749F0AE0107
:101FE000B8010E94FB0FC8010E94B50E870153CFB4
:101FF00010E000E050CFFB01DC0102C001900D9227
:1020000041505040D8F70895FB01DC0101900D923A
:0A2010000020E1F70895F894FFCFD7
:10201A00FFFFFFFFFFFF00000A0280000000000030
:10202A00DA013A0167014202980176018A010D0A32
:02203A000000A4
:00000001FF
