:02000000D22804
:08000800DF0003088301DE00A4
:100010000408DD005429B300F839AB00AB0CAB0C7D
:100020002B0C8407C120B3000005CE283308031C25
:100030000301000633058006CE28AC01AE01AD00F9
:1000400001302628AC01AE01AD000630AA002E0812
:100050002C02031D2D282D082B020430031801301B
:10006000031902302A05031D0130CE28A801AF0074
:10007000B001A01128080319A0150430A700300E04
:100080004620300846202F0E46202F080F39F63E16
:100090000318073E0A3EAB00A7030319A011280866
:1000A00003195528270203185C282B08031DA011EB
:1000B000A0195C28303E9C280800B100220884006A
:1000C000AA01F030AA050830B20003100318AA0AEA
:1000D0007820B10CB20B66280000B51A2A0C7820E3
:1000E0007128031478202608AE002508A020CE2809
:1000F0008413B51F872800082904351F29068000AE
:10010000841700082904031C29068000922800088F
:100110002904031C2906351B290680008417290998
:100120008005922835081F39FF3EAC003408F53EA3
:100130000318AC0A0000AD28A11A5D280800AE0122
:10014000AD00FF30AD07031CAE07031CCE28033003
:10015000AC00DF30AD20A128AC01E83EAB00AC091B
:10016000FC30031CB628AB070318B328AB0700000C
:10017000AC0FB3282B18BC28AB1CC0280000C0282B
:10018000080000308A00330807398207013402343E
:100190000434083410342034403480348313831200
:1001A000031308008301A0010730990083169F0103
:1001B0008B170B1796158B150B1081008515831265
:1001C0003F1D53290530A2000130A900B50154306C
:1001D000B400A6011430A5002030A1005F305D20DE
:1001E0003E305D2020305D2041305D2044305D2078
:1001F00044305D203A305D2020305D2030305D207D
:1002000078305D200230A8003A08372020305D2089
:1002100049305D204E305D205F305D2041305D20F3
:1002200044305D2044305D203A305D2020305D2038
:1002300030305D2078305D200230A8003B08372048
:1002400020305D2043305D204D305D2044305D2006
:100250003A305D2020305D2030305D2078305D20E8
:100260000230A8003C08372020305D2049305D2056
:100270004E305D205F305D2043305D204D305D208D
:1002800044305D203A305D2020305D2030305D20EC
:1002900078305D200230A8003D0837200D305D2009
:1002A0000A305D203F11DF280B1CDF29851D5929ED
:1002B00081018519DE290108BE003F1CCE290330CB
:1002C0003E0203186529BF106629BF1400303902A9
:1002D000003003180130B8003908AB000730222085
:1002E000B80503197C293A3084003908003E0B20F8
:1002F0000310BF1803141620083039020030031809
:100300000130B8003908AB000F302220B8050319BE
:10031000952908303902AB003B3084002B08003EA1
:100320000B200310BF1803141620103039020030C0
:1003300003180130B8003908AB0017302220B80587
:100340000319AE2910303902AB003C3084002B0871
:10035000003E0B200310BF1803141620183039027A
:10036000003003180130B8003908AB001F302220DC
:10037000B8050319C72918303902AB003D30840095
:100380002B08003E0B200310BF1803141620B90AD7
:1003900020303902031CCE293F103F153E08AB0028
:1003A0000A301D20B80032303E0201300318003000
:1003B000B8050319DD293F14B9010B100B105D08B6
:0E03C00084005E088300DF0E5F0E0900E62950
:02400E000000B0
:00000001FF
